:020000040800F2
:10000000C81A002095050008810200088302000834
:100010008F0200089B020008A702000800000000F1
:10002000000000000000000000000000B302000813
:10003000B502000800000000AB050008B702000888
:10004000AF050008AF050008AF050008B9020008B9
:10005000AF050008AF050008B12B0008AF05000888
:10006000AF050008AF050008AF050008AF050008A0
:10007000AF050008AF050008AF050008AF05000890
:10008000AF050008AF050008AF050008AF05000880
:10009000AF050008AF050008AF050008792B000880
:1000A000AF050008AF050008AF050008AF05000860
:1000B000AF050008AF050008AF050008AF05000850
:1000C000AF050008AF050008AF050008AF05000840
:1000D000AF0500084B2A0008DD630008AF050008E3
:1000E000AF050008AF050008AF050008AF05000820
:1000F000AF050008AF050008AF050008AF05000810
:10010000AF050008AF050008AF050008AF050008FF
:10011000AF050008AF050008AF050008AF050008EF
:10012000AF050008AF050008AF050008AF050008DF
:1001300000F002F800F094F80AA090E8000C824465
:100140008344AAF10107DA4501D100F089F8AFF242
:10015000090EBAE80F0013F0010F18BFFB1A43F0A5
:1001600001031847E8DD000008DE0000103A24BF54
:1001700078C878C1FAD8520724BF30C830C144BF0C
:1001800004680C607047000000230024002500264E
:10019000103A28BF78C1FBD8520728BF30C148BFEA
:1001A0000B6070476E2909F03782702909F0A58528
:1001B00066290BF04A8365290BF0478367290BF00A
:1001C00044836129AFF3008003681B0A28BF41F014
:1001D0008001692908F0E286642908F0DF86752924
:1001E00008F0DC866F2909F03385782909F07185DC
:1001F000E92909F0CD84E42909F0CA84F52909F038
:10020000C784EF2909F03085F82909F07085036863
:10021000DB0928BF41F08001632909F04E8473296E
:1002200009F05384E32909F06586F32909F06A8609
:10023000002070471FB59DE8030009F025F909F07B
:10024000ABFD0400002000210AF002FC401C6060AD
:10025000002000210AF0E6FBE0601FBD10B510BDD4
:1002600009F03AFF1146FFF7E5FF04F097FA09F0AD
:1002700066FF03B4FFF7F2FF03BC09F0D7FF0000ED
:1002800070470EA11C4802F0BCFB00BFFEE71BA19B
:10029000194802F0B6FB00BFFEE727A1164802F09E
:1002A000B0FB00BFFEE733A1134802F0AAFB00BF7A
:1002B000FEE7704770477047704700000D0A2A2A12
:1002C0002A2A2A2A2A2A2A2A2A2A2A2A2A2A2A2A8E
:1002D0002A486172644661756C745F48616E646C33
:1002E00065722A2A2A2A2A2A2A2A2A2A2A2A2A2AEB
:1002F0002A2A2A2A2A0D0A00003801400D0A2A2A31
:100300002A2A2A2A2A2A2A2A2A2A2A2A2A2A2A2A4D
:100310002A4D656D4D616E6167655F48616E646C05
:1003200065722A2A2A2A2A2A2A2A2A2A2A2A2A2AAA
:100330002A2A2A2A2A0D0A000D0A2A2A2A2A2A2AC1
:100340002A2A2A2A2A2A2A2A2A2A2A2A2A42757361
:100350004661756C745F48616E646C65722A2A2A06
:100360002A2A2A2A2A2A2A2A2A2A2A2A2A2A2A2AED
:100370000D0A00000D0A2A2A2A2A2A2A2A2A2A2AAB
:100380002A2A2A2A2A2A2A2A2A5573616765466157
:10039000756C745F48616E646C65722A2A2A2A2A19
:1003A0002A2A2A2A2A2A2A2A2A2A2A2A2A2A0D0AEA
:1003B000000000000CB50020019000906C4800681F
:1003C00040F480306A49086000BF6948006800F462
:1003D000003000900198401C0190009818B90198D5
:1003E000B0F5A06FF1D16248006800F4003010B1A0
:1003F0000120009001E0002000900098012843D1E6
:100400005C48006840F010005A49086008460068DF
:1004100020F0030008600846006840F00200086011
:10042000534840685249486008464068486008465A
:10043000406840F4806048600846406820F47C10C2
:1004400048600846406840F4E81048600846006884
:1004500040F08070086000BF4548006800F0007000
:100460000028F9D04248406820F003004049486025
:100470000846406840F00200486000BF3C484068C1
:1004800000F00C000828F9D10CBD10B5FFF792FF61
:1004900010BD10B53648006840F0010034490860CE
:1004A00008464068344908403149486008460068B9
:1004B000324908402E4908600846006820F4802030
:1004C00008600846406820F4FE0048604FF41F00B2
:1004D0008860FFF7DAFF4FF000602949086010BD1F
:1004E00010B5002100200022214B5B6803F00C01B5
:1004F00021B1042906D0082928D107E0214B224C3C
:10050000236027E01F4B204C236023E0184B5B68DF
:1005100003F47010164B5B6803F48032022303EB84
:10052000904022B9194B4343174C23600DE0104B08
:100530005B6803F4003323B1144B4343124C236034
:1005400003E0104B4343104C236003E00D4B0E4C73
:10055000236000BF00BF064B5B68C3F303130C4C62
:10056000E15C094B1B68CB40074C236010BD0000C9
:1005700000100240002002400000FFF8FFFFF6FEDE
:1005800008ED00E000127A000000002000093D00A4
:10059000040000200948804709480047FEE7FEE7BD
:1005A000FEE7FEE7FEE7FEE7FEE7FEE7FEE7FEE723
:1005B00004480549054A064B7047000093040008AB
:1005C00031010008C8020020C81A0020C80E00200F
:1005D000C80E002031490143314A1160704770B59F
:1005E000002100230F22C47804B32D4C246804F4A6
:1005F000E064C4F5E064210AC1F10403CA40447810
:1006000004FA03F18478144021430901254C06784B
:10061000A155047804F01F050124AC4005786D1144
:10062000AD0005F1E025C5F8004109E0047804F0CB
:100630001F050124AC401C4D0678761145F8264074
:1006400070BD1A4A0A400243154B1B1F1A607047BF
:1006500039B1134A121D12680243114B1B1D1A6057
:1006600006E00F4A121D126882430D4B1B1D1A60D3
:100670007047042808D14FF0E021096941F00401D6
:100680004FF0E022116107E04FF0E021096921F00D
:1006900004014FF0E0221161704700000000FA05EC
:1006A0000CED00E000E400E080E100E080FFFF1FCF
:1006B00010B50446CC48844208D10121042000F042
:1006C0002DFB0021042000F029FB46E0C7488442AE
:1006D00008D10121082000F021FB0021082000F0B2
:1006E0001DFB3AE0C248844208D10121102000F0ED
:1006F00015FB0021102000F011FB2EE0BD488442C4
:1007000008D10121202000F009FB0021202000F069
:1007100005FB22E0B848844208D10121402000F0C6
:10072000FDFA0021402000F0F9FA16E0B3488442B7
:1007300008D10121802000F0F1FA0021802000F092
:10074000EDFA0AE0AE48844207D10121801500F09D
:10075000E5FA0021A01500F0E1FA10BD10B5012165
:10076000084600F0DBFA0021012000F0D7FA10BDA6
:100770002DE9F04102460025002600200023002438
:10078000002791F803C00CF00F0591F803C00CF09E
:10079000100CBCF1000F03D091F802C04CEA050523
:1007A00091F800C0BCF1000F31D0146800202BE09C
:1007B0004FF0010C0CFA00F3B1F800C00CEA03068C
:1007C0009E4220D183004FF00F0C0CFA03F7BC437C
:1007D00005FA03FC4CEA040491F803C0BCF1280FAD
:1007E00006D14FF0010C0CFA00FCC2F814C00AE06C
:1007F00091F803C0BCF1480F05D14FF0010C0CFA81
:1008000000FCC2F810C0401C0828D1D31460B1F815
:1008100000C0BCF1FF0F34DD546800202EE000F171
:10082000080C4FF0010808FA0CF3B1F800C00CEA0C
:1008300003069E4221D183004FF00F0C0CFA03F700
:10084000BC4305FA03FC4CEA040491F803C0BCF174
:10085000280F05D100F1080C08FA0CF8C2F8148032
:1008600091F803C0BCF1480F07D100F1080C4FF01C
:10087000010808FA0CF8C2F81080401C0828CED3F2
:100880005460BDE8F0814FF6FF7101800221817054
:100890000421C17070470246002093680B400BB1E1
:1008A000012000E0002070470146886880B2704750
:1008B00002460020D3680B400BB1012000E000206D
:1008C00070470146C86880B2704701617047416156
:1008D00070470AB1016100E041617047C160704733
:1008E0004FF480320A438261816182618269826948
:1008F000704702460020434B18684FF6807318403B
:1009000040EA021008433F4B186070473E49C861F7
:100910007047F0B50A46002300240021002500F0AE
:100920000046B6F1004F02D1364EF16901E0354E76
:100930007168C0F3034583B200F44016B6F5401F5A
:1009400008D121F070612F4E766826F070662D4F29
:100950007E6012E000F48016B6F5801F06D10326F3
:1009600006FA05F4A14341F0706106E0460D360138
:1009700003FA06F6B14341F0706122B1460D36012B
:1009800003FA06F6314300F00046B6F1004F02D1FB
:100990001C4EF16101E01B4E7160F0BD30B50022CC
:1009A0008B071C0F0F2303FA04F2164B08338C102D
:1009B00053F824309343134C08348D1044F82530F9
:1009C00023468C1053F824308C07240F00FA04F4CB
:1009D00023430C4C08348D1044F8253030BD0A49AF
:1009E000DC3108607047000000080140000C014045
:1009F000001001400014014000180140001C01409B
:100A0000002001400000014000002042DF48006853
:100A100040F00100DD49086008464068DC490840B4
:100A2000DA49486008460068DA490840D749086052
:100A30000846006820F4802008600846406820F4DA
:100A4000FE0048604FF41F0088607047CF49096876
:100A500021F48031CD4A11601146096821F48021CA
:100A60001160B0F5803F03D0B0F5802F0ED106E0C5
:100A7000C649096841F48031C44A116007E0C3499E
:100A8000096841F4A021C14A116000E000BF00BF25
:100A9000704710B501460022002300204A11012AA8
:100AA00002D1BA4C236806E0022A02D1B74C236A6D
:100AB00001E0B64C636A01F01F02012494401C401F
:100AC0000CB1012000E0002010BD38B500200090DE
:100AD0000024002500BF3120FFF7DBFF054600980A
:100AE000401C00900098B0F5A06F01D0002DF2D00E
:100AF0003120FFF7CEFF08B1012400E0002420469A
:100B000038BD01460020A14A106820F0F80040EAF4
:100B1000C10010607047A04908607047024600207D
:100B20009A4B586820F47C1042EA01031843974B13
:100B30005860704798490866704701460020934AFC
:100B4000506820F003000843506070478F484068A9
:100B500000F00C007047014600208C4A506820F0DD
:100B6000F00008435060704701460020874A5068F3
:100B700020F4E06008435060704701460020834A3B
:100B8000506820F4605040EAC1005060704729B1BD
:100B90007E4A527A02437D4B5A7204E07B4A527A73
:100BA00082437A4B5A7270477B49D831086070474C
:100BB00001460020754A506820F4404008435060C8
:100BC00070470021714A20321170704A82F820105B
:100BD000012802D004280AD104E001216B4A203206
:100BE000117005E00521694A2032117000E000BF54
:100BF00000BF70476949086070476449096A01434A
:100C0000624A11627047654944390860704730B5DF
:100C100000210022002400235C4D6D6805F00C01CA
:100C200021B1042905D0082923D105E05C4D0560D8
:100C300022E05B4D05601FE0544D6D6805F47012B5
:100C4000524D6D6805F48034022505EB92421CB9C3
:100C5000544D554305600BE04C4D6D6805F400356F
:100C60001DB1504D5543056002E04D4D55430560A3
:100C700002E04B4D056000BF00BF444D6D6805F0BC
:100C8000F0010909484D6B5C0568DD4045603F4D4A
:100C90006D6805F4E061090A434D6B5C4568DD4011
:100CA00085603A4D6D6805F46051C90A3E4D6B5C34
:100CB0004568DD40C560354D6D6805F44041890BE0
:100CC0003A4D6B5CC568B5FBF3F5056130BD29B1E4
:100CD0002E4A526902432D4B5A6104E02B4A526955
:100CE00082432A4B5A61704729B1284A92690243CC
:100CF000264B9A6104E0254A92698243234B9A610C
:100D0000704729B1214AD2690243204BDA6104E0DD
:100D10001E4AD26982431D4BDA61704729B11B4AD2
:100D2000D2680243194BDA6004E0184AD268824361
:100D3000164BDA60704729B1144A12690243134B0B
:100D40001A6104E0114A12698243104B1A6170471C
:100D500012494039086070470F49C86470470B4911
:100D6000C87170470948406A40F08070074948627E
:100D7000704701460020054A92680A400AB10120E6
:100D800000E000207047014988727047001002405F
:100D90000000FFF8FFFFF6FE0000424280044242DE
:100DA00000127A0000093D001400002024000020F9
:100DB00010B50446FB48844209D101218803FFF79E
:100DC000ADFF00214FF48040FFF7A8FF32E0F64866
:100DD000844209D101214804FFF7ADFF00214FF4FF
:100DE0000030FFF7A8FF25E0F048844209D1012137
:100DF0008804FFF7A0FF00214FF48020FFF79BFF3E
:100E000018E0EB48844209D10121C804FFF793FFA1
:100E100000214FF40020FFF78EFF0BE0E5488442ED
:100E200008D101210805FFF786FF00214FF480104B
:100E3000FFF781FF10BD2DE9F04786B005460E464D
:100E40000024A24600BFA1460027B08900B100BF20
:100E50002F462C8A4CF6FF700440F08804432C8205
:100E6000AC894EF6F3100440B0883189084371898B
:100E700008430443AC81AC8A4FF6FF400440B0897C
:100E80000443AC8201A8FFF7C2FEC648874202D1E4
:100E9000DDF810A001E0DDF80CA0A88900F4004006
:100EA00040B10AEBCA0000EB0A1031684900B0FB00
:100EB000F1F807E00AEBCA0000EB0A10316889007C
:100EC000B0FBF1F86420B8FBF0F0040120096421C4
:100ED00001FB1089A88900F4004040B1322000EBEA
:100EE000C900B0FBF1F000F00700044308E0322035
:100EF00000EB09106421B0FBF1F000F00F00044397
:100F00002C8106B0BDE8F0874FF416510160002136
:100F10008180C18001810C21418100218181704744
:100F200010B502460020108A4FF2FF0318400B88CC
:100F30004C8823438C882343CC8823431843108256
:100F400010BD0021018041808180C180704721B1A6
:100F5000828942F40052828104E082894DF6FF7357
:100F60001A4082817047F0B5034600240026002510
:100F7000002040F66A17B94200D100BF1846C1F3FD
:100F8000421401F01F06012707FA06F5012C01D1D2
:100F90000C3004E0022C01D1103000E014301AB102
:100FA00007682F43076002E00768AF430760F0BDA2
:100FB0001AB1838A0B43838202E0838A8B43838244
:100FC0007047028A4FF6F0731A400282028A0A437F
:100FD0000282704782894FF2FF731A4082818289B0
:100FE0000A438281704721B1828942F002028281E4
:100FF00004E082894FF6FD731A4082817047028AAD
:101000004FF6DF731A400282028A0A430282704757
:1010100021B1028A42F48042028204E0028A4BF645
:10102000FF731A4002827047C1F308028280704742
:1010300001468888C0F308007047818941F00101AA
:1010400081817047028BD2B20283028B42EA012275
:1010500002837047028B02F47F420283028B0A43B1
:101060000283704721B1828A42F02002828204E02A
:10107000828A4FF6DF731A408282704721B1828ADA
:1010800042F01002828204E0828A4FF6EF731A4027
:101090008282704721B1828A42F00802828204E093
:1010A000828A4FF6F7731A408282704721B1828993
:1010B00042F40042828103E08289C2F30E028281FF
:1010C000704721B1828A42F40062828204E0828AFF
:1010D0004FF2FF731A4082827047828A4FF6FB7389
:1010E0001A408282828A0A438282704721B1828AB0
:1010F00042F00202828204E0828A4FF6FD731A40B7
:101100008282704702460020B1F5007F00D100BF07
:1011100013880B400BB1012000E00020704701F460
:101120000072B2F5007F00D100BFCA430280704751
:1011300070B50246002400230025002040F66A1600
:10114000B14200D100BFC1F3421501F01F030126D7
:1011500006FA03F3012D02D19689334006E0022DF1
:1011600002D1168A334001E0968A33400C120126E0
:1011700006FA04F41688344013B10CB1012000E0E3
:10118000002070BD10B50022002340F66A14A14271
:1011900000D100BF0A1201249440A3B2DC430480B2
:1011A00010BD0000003801400044004000480040ED
:1011B000004C004000500040002044490860091DD8
:1011C0000860091D0860091D086041483F49143145
:1011D0000860704700213D498279002A3AD00A46CA
:1011E000126803689A430B461A600A1D1268036866
:1011F0009A430B1D1A60027911440A6803681A4366
:101200000A60324A0832126803689A432F4B083347
:101210001A601A1D126803689A432C4B0C331A602B
:101220004279102A0ED11A1F126803681A43274BFD
:1012300008331A601A1D126803681A43234B0C33D3
:101240001A600DE02149427911440A6803681A4383
:101250000A6005E0027911440A6803689A430A604B
:1012600070470021016001710C21417100218171E1
:1012700070471649103109680143144A1032116051
:10128000704701460020114A143212680A400AB120
:10129000012000E0002070470C49143108607047BD
:1012A000014600200022094B1B6803EA0102074B9C
:1012B00014331B680B4013B10AB1012000E0002079
:1012C0007047024914310860704700000004014073
:1012D000FFFF0F0010B50446FA48844208D10121EF
:1012E0004015FFF71BFD00216015FFF717FD17E004
:1012F000F548844208D101210015FFF70FFD0021B8
:101300002015FFF70BFD0BE0F048844208D10121C6
:10131000C803FFF703FD00214FF40040FFF7FEFC78
:1013200010BD30B50246002000235068E84C204034
:101330000D790C6844EA0524204350609068E54C20
:101340002040D1E902542C434D7944EA450420431E
:101350009060D06A20F470000C7C641EE4B22343D9
:1013600040EA0350D06230BD00210160017141713B
:101370008160C16001210174704721B1826842F02F
:101380000102826003E0826822F0010282607047FD
:1013900021B1826842F48072826003E0826822F4A4
:1013A00080728260704710B50023CBB21AB14468D6
:1013B0001C43446002E044689C43446010BD816863
:1013C00041F0080181607047014600208A6802F000
:1013D00008020AB1012000E000207047816841F056
:1013E000040181607047014600208A6802F004020F
:1013F0000AB1012000E00020704721B1826842F468
:10140000A002826003E0826822F4A002826070473A
:10141000014600208A6802F480020AB1012000E03F
:101420000020704710B50A4600210023416821F4CE
:101430006041531E41EA4331416010BD21B1426811
:1014400042F40062426003E0426822F400624260BB
:101450007047F0B504460D4600200021092D11DD2E
:10146000E068A5F10A0606EB4607072606FA07F12B
:101470008843A5F10A0606EB460603FA06F108437F
:10148000E0600CE0206905EB4507072606FA07F146
:10149000884305EB450603FA06F108432061072A55
:1014A0000FDA606B561E06EB86071F2606FA07F159
:1014B0008843561E06EB860605FA06F1084360636C
:1014C00022E00D2A0FDA206BD61F06EB86071F26B7
:1014D00006FA07F18843D61F06EB860605FA06F1E1
:1014E0000843206310E0E06AA2F10D0606EB8607D0
:1014F0001F2606FA07F18843A2F10D0606EB8606C1
:1015000005FA06F10843E062F0BD21B1826842F4B9
:101510008012826003E0826822F480128260704749
:101520000146C86C80B2704766484C30006870470E
:1015300021B1426842F48062426003E0426822F4D2
:1015400080624260704721B1426842F4805242603A
:1015500003E0426822F48052426070470A4600214C
:10156000816821F4E04111438160704721B18268B4
:1015700042F40042826003E0826822F4004282600A
:10158000704721B1826842F40212826003E08268EF
:1015900022F4021282607047014600208A6802F439
:1015A00000120AB1012000E000207047F0B50446A7
:1015B0001546002000220026092911DDE068A1F16E
:1015C0000A0707EB470C072707FA0CF29043A1F133
:1015D0000A0707EB470703FA07F21043E0600CE045
:1015E000206901EB410C072707FA0CF2904301EB4D
:1015F000410703FA07F210432061A06BC0F30156C4
:10160000EF1C06F1010CA7EB0C0707EB870C1F275B
:1016100007FA0CF29043EF1C06F1010CA7EB0C0744
:1016200007EB870701FA07F21043A063F0BD10B57E
:101630000A4600210023816B21F44011531E41EA28
:101640000351816310BD08B5002300930090009BF7
:101650000B440093009B1A6008BD08B502460020A9
:101660000090009201F12800009B1844009000981F
:10167000006880B208BD0A4600214168164B194037
:101680001143416070474162826270470A460021FF
:10169000416821F01F0111434160704740B1094981
:1016A0000831096841F40001064A0832116007E078
:1016B00004490831096821F40001024A0832116026
:1016C000704700000024014000280140003C014018
:1016D000FFFEF0FFFDF7F1FFFFFD3FFF0246002098
:1016E00013680B400BB1012000E000207047CA4393
:1016F0000260704770B502460020002300240B12E0
:101700005568CEB205EA060415681D4015B10CB146
:10171000012000E0002070BD00220A12D3430360C4
:101720007047000001684FF6FE7211400160002111
:10173000016041608160C1608D49884208D18C4957
:101740000839496841F00F01894A083A51608AE036
:1017500087491431884208D185490839496841F0E0
:10176000F001834A083A51607DE08149283188427E
:1017700008D17F490839496841F470617C4A083AC8
:10178000516070E07A493C31884208D17849083983
:10179000496841F47041764A083A516063E07449FF
:1017A0005031884208D172490839496841F47021A2
:1017B0006F4A083A516056E06D496431884208D159
:1017C0006B490839496841F47001694A083A516027
:1017D00049E067497831884208D165490839496844
:1017E00041F07061624A083A51603CE061498842C8
:1017F00006D1011F096841F00F01021F116032E09C
:101800005C491431884208D15A49091F096841F0DE
:10181000F001584A121F116025E0564928318842CC
:1018200008D15449091F096841F47061514A121FD7
:10183000116018E04F493C31884208D14D49091FD9
:10184000096841F470414B4A121F11600BE049498D
:101850005031884207D14749091F096841F4702176
:10186000444A121F1160704710B50022026847F603
:10187000F0739A430C6A8B6823430C6923434C69C9
:1018800023438C692343CC6923434C6A23438C6AEA
:1018900023431A430260CB6843600B6883604B6844
:1018A000C36010BD0021016041608160C1600161C1
:1018B00041618161C161016241628162704721B110
:1018C000026842F00102026004E002684FF6FE7313
:1018D0001A40026070471AB103680B43036002E0CC
:1018E00003688B4303607047416070470146486856
:1018F00080B2704701460020002201F080531BB1E6
:101900001C4B083B1A6802E0194B083B1A6802EAB4
:1019100001030BB1012000E00020704700F080516E
:1019200019B11449091F086002E0114908394860DB
:10193000704701460020002201F080531BB10D4B7F
:10194000083B1A6802E00A4B083B1A6802EA0103E6
:101950000BB1012000E00020704700F0805119B168
:101960000449091F086002E00149083948607047CE
:10197000080002400804024010B50446FE488442B4
:1019800008D10121C014FFF7C9F90021E014FFF7C5
:10199000C5F9C4E0B4F1804F08D101210846FFF732
:1019A000CAF900210120FFF7C6F9B8E0F3488442E4
:1019B00008D101210220FFF7BEF900210220FFF724
:1019C000BAF9ACE0EE48844208D101210420FFF7C7
:1019D000B2F900210420FFF7AEF9A0E0E948844203
:1019E00008D101210820FFF7A6F900210820FFF700
:1019F000A2F994E0E448844208D101211020FFF7C5
:101A00009AF900211020FFF796F988E0DF48844218
:101A100008D101212020FFF78EF900212020FFF7B7
:101A20008AF97CE0DA48844208D101214014FFF7AA
:101A300075F900216014FFF771F970E0D548844210
:101A400009D10121C804FFF769F900214FF40020F2
:101A5000FFF764F963E0D048844209D10121080509
:101A6000FFF75CF900214FF48010FFF757F956E0BB
:101A7000CA48844209D101214805FFF74FF90021E6
:101A80004FF40010FFF74AF949E0C548844208D1F5
:101A900001214020FFF74FF900214020FFF74BF9CB
:101AA0003DE0C048844208D101218020FFF743F97E
:101AB00000218020FFF73FF931E0BB48844208D184
:101AC00001218015FFF737F90021A015FFF733F941
:101AD00025E0B648844209D101210804FFF71EF928
:101AE00000214FF48030FFF719F918E0B048844224
:101AF00009D101214804FFF711F900214FF400300A
:101B0000FFF70CF90BE0AB48844208D101218804AF
:101B1000FFF704F900214FF48020FFF7FFF810BD14
:101B200000220288944B98420ED0994B98420BD0D9
:101B3000B0F1804F08D0914B984205D0904B98421D
:101B400002D0904B984204D14FF68F731A404B88C5
:101B50001A438D4B984207D08C4B984204D04FF6D5
:101B6000FF431A40CB881A4302808B8883850B88F9
:101B70000385814B98420BD0854B984208D08B4B04
:101B8000984205D08A4B984202D08A4B984201D1A4
:101B90000B7A038601238382704770B500240022EC
:101BA0000023058C4FF6FE7635400584028C838831
:101BB000048B4FF68F752C40B51E2C400D882C439E
:101BC000751E2A400D892A434D882A436A4DA84232
:101BD0000BD06F4DA84208D0744DA84205D0744D6B
:101BE000A84202D0734DA84213D14FF6F7752A4090
:101BF0004D892A434FF6FB752A408D882A434FF6BC
:101C0000FF652B404FF6FF552B408D892B43CD8927
:101C10002B4383800483CD888586028470BD70B594
:101C2000002400220023058C4FF6EF763540058412
:101C3000028C8388048B48F6FF752C404FF6FF45D5
:101C40002C400D884FF6FF7606EA05252C434FF60B
:101C5000DF752A400D8906EA05152A434D8806EAF4
:101C600005152A43444DA84202D0494DA8421DD132
:101C70004FF67F752A404D894FF6FF7606EA051527
:101C80002A434FF6BF752A408D8806EA05152A4378
:101C90004FF6FF352B404FF2FF752B408D8906EA3A
:101CA00085052B43CD8906EA85052B438380048374
:101CB000CD880587028470BD70B500240022002302
:101CC000058C4FF6FF6635400584028C8388848B33
:101CD0004FF68F752C404FF6FC752C400D882C4329
:101CE0004FF6FF552A400D894FF6FF7606EA052587
:101CF0002A434D8806EA05252A431F4DA84202D0F3
:101D0000234DA8421DD14FF2FF752A404D894FF651
:101D1000FF7606EA05252A434FF6FF352A408D88CF
:101D200006EA05252A434EF6FF752B404DF6FF7552
:101D30002B408D8906EA05152B43CD8906EA05154A
:101D40002B4383808483CD888587028470BD70B5E2
:101D5000002200230024058C4EF6FF7635400584D2
:101D6000038C8488828B48F6FF752A404FF6FF4526
:101D70002A400D8820E00000002C014000040040B3
:101D800000080040000C004000100040001400401B
:101D900000340140004C014000500140005401401B
:101DA00000180040001C004000200040004001409E
:101DB00000440140004801404FF6FF7606EA052541
:101DC0002A434DF6FF752B400D8906EA05352B4356
:101DD0004D8806EA05352B43FA4DA84202D0FA4D4C
:101DE000A84208D14BF6FF752C408D894FF6FF763F
:101DF00006EA85152C4384808283CD88A0F8405064
:101E0000038470BD828B4FF2FF331A408283828B32
:101E10004FF6FF7303EA01231A4382837047F0B53C
:101E20000C461546002200210026078C4EF6FF7C4A
:101E300007EA0C070784828B018C4FF6FF7707EACD
:101E4000043640F6FF473A404FF6FF7707EA05278A
:101E50003A434FF6FF7707EA03373A43D94FB84280
:101E60000ED0D94FB8420BD0B0F1804F08D0D74F29
:101E7000B84205D0D64FB84202D0D64FB84206D1AC
:101E80004DF6FF77394046F48057394305E047F671
:101E9000FF57394044F48057394382830184F0BDB1
:101EA000828B4FF6F3731A408283828B0A438283BC
:101EB0007047F0B50C461546002200210026078C1D
:101EC0004FF6FF6C07EA0C070784828B018C4FF6F4
:101ED000FF7707EA04264FF60C773A404FF6FF7774
:101EE00007EA03172F433A43B64FB8420ED0B64F16
:101EF000B8420BD0B0F1804F08D0B44FB84205D0F3
:101F0000B34FB84202D0B34FB84206D14FF6FF5795
:101F1000394046F48077394305E04FF2FF573940A6
:101F200044F48077394382830184F0BD028B4FF201
:101F3000FF331A400283028B4FF6FF7303EA01233B
:101F40001A4302837047F0B50C4615460022002163
:101F50000026078C4FF6EF7C07EA0C070784028BFC
:101F6000018C4FF6FF7707EA041640F6FF473A4028
:101F70004FF6FF7707EA03373A434FF6FF7707EA52
:101F800005273A438F4FB8420ED08F4FB8420BD03F
:101F9000B0F1804F08D08D4FB84205D08C4FB84279
:101FA00002D08C4FB84206D14FF6DF77394046F069
:101FB0001007394305E04FF65F77394044F01007CA
:101FC000394302830184F0BD028B4FF6F3731A404C
:101FD0000283028B0A4302837047F0B50C46154614
:101FE00000220021068C4FF6FE773E400684028BCD
:101FF000018C4FF60C7632407E1C06EA03162E4307
:102000003243704EB0420ED06F4EB0420BD0B0F1A2
:10201000804F08D06D4EB04205D06D4EB04202D018
:102020006C4EB04206D14FF6FD76314044F00106C9
:10203000314305E04FF6F576314044F00106314377
:1020400002830184F0BD70B505460C465D488542AB
:102050000ED05D4885420BD0B5F1804F08D05B486B
:10206000854205D05A48854202D05A48854200D15F
:1020700000E000BF208850B92389A28861882846E3
:10208000FFF7ABFFE1882846FFF79EFF25E0208899
:1020900004280AD12389A28861882846FFF753FFC4
:1020A000E1882846FFF742FF17E0208808280AD178
:1020B0002389A28861882846FFF7FBFEE18828462D
:1020C000FFF7EEFE09E02389A28861882846FFF722
:1020D000A6FEE1882846FFF795FE70BD2DE9F04188
:1020E00005460C4600260127608808B9022600E054
:1020F0000026A088012801D1022700E001272088BE
:10210000A0B92389A28861882846FFF766FFE18885
:102110002846FFF759FF23893A4631462846FFF7FC
:1021200012FFE1882846FFF701FF13E02389A28808
:1021300061882846FFF707FFE1882846FFF7F6FE8B
:1021400023893A4631462846FFF747FFE18828466B
:10215000FFF73AFFBDE8F0810A884B881A438B8865
:102160001A43CB881A430B891A434B891A438B892C
:102170001A43A0F8442070474FF6FF718180002178
:102180000180C1804180017270470021018041803F
:102190008180C180018141818181C181704700219D
:1021A00001804180012181800021C180018170472F
:1021B0000021018041808180C18001814181818134
:1021C00070470000002C0140003401400004004032
:1021D00000080040000C004021B1028842F00102DA
:1021E000028004E002884FF6FE731A4002807047B6
:1021F00031B1B0F8442042F40042A0F8442005E098
:10220000B0F84420C2F30E02A0F8442070471AB17F
:1022100083890B43838102E083898B4383817047E9
:102220008182704741EA0203A0F8483070471AB132
:1022300083890B43838102E083898B4383817047C9
:1022400001894FF6F8721140018170470A4600215A
:1022500001894FF68F73194011430181704730B5E2
:1022600004460D4629462046FFF7F0FF208940F03E
:102270000700208130BD2DE9F04104460D46164689
:102280001F46602D06D13B46012231462046FFF70E
:102290005AFE05E03B46012231462046FFF79DFEEF
:1022A00029462046FFF7D2FF208940F00700208111
:1022B000BDE8F08130B50C4600210189C9B24FF666
:1022C000FF7505EA0325154325432943018130BDE8
:1022D0002DE9F04105460E46174698460024434630
:1022E0003A4631462846FFF7E5FF2C894FF6F8704D
:1022F000044044F007044FF68F70044044F070042B
:102300002C81BDE8F081F0B504460D4616461F4607
:102310003B46324629462046FFF7CCFF208940F451
:1023200080402081F0BD0185828270470A460021ED
:1023300001884FF68F731940114301807047F0B543
:102340000C4615461E460021002200230189028BFF
:10235000038C4FF6F877394021434FF6FC473A405B
:1023600040F201173A434FF6DD773B404FF6FF77D7
:1023700007EA06172F433B43018102830384F0BD24
:102380000A460021018B4FF68F73194011430183D8
:1023900070470A460021018B48F6FF7319404FF63B
:1023A000FF7303EA02231943018370470A460021A1
:1023B000818B4FF68F7319401143818370470A4612
:1023C0000021818B48F6FF7319404FF6FF7303EA33
:1023D000022319438183704721B1028842F08002B1
:1023E000028004E002884FF67F731A400280704733
:1023F00021B1828842F00402828004E082884FF694
:10240000FB731A408280704721B1828842F0080233
:10241000828004E082884FF6F7731A40828070470A
:1024200021B1828842F00102828004E082884FF666
:10243000FE731A40828070470A460021018B4FF6D6
:10244000F77319401143018370470A460021018B3D
:102450004FF2FF7319404FF6FF7303EA022319434B
:10246000018370470A460021818B4FF6F7731940AC
:102470001143818370470A460021818B4FF2FF731D
:1024800019404FF6FF7303EA022319438183704713
:102490000A460021018B4FF6FB731940114301835B
:1024A00070470A460021018B4FF6FF3319404FF663
:1024B000FF7303EA02231943018370470A46002190
:1024C000818B4FF6FB7319401143818370470A4695
:1024D0000021818B4FF6FF3319404FF6FF7303EA5B
:1024E00002231943818370470A460021018B4FF66E
:1024F0007F7319401143018370470A460021018B05
:10250000C1F30E014FF6FF7303EA0223194301835F
:1025100070470A460021818B4FF67F7319401143A3
:10252000818370470A460021818BC1F30E014FF66B
:10253000FF7303EA02231943818370470A4600218F
:10254000018C4FF6FD7319401143018470470A4610
:102550000021018C4FF6F773194011430184704735
:102560000A460021018C4FF6DF7319404FF6FF73C6
:1025700003EA02131943018470470A460021018CC3
:102580004FF67F7319404FF6FF7303EA02131943A6
:10259000018470470A460021018C4FF6FF53194011
:1025A0004FF6FF7303EA02231943018470470A467A
:1025B0000021018C4FF2FF7319404FF6FF7303EABD
:1025C00002231943018470470A460021018C4DF60D
:1025D000FF7319404FF6FF7303EA02331943018476
:1025E000704730B5002301248C40A3B2048C9C4377
:1025F0000484048C02FA01F5ADB22C43048430BD8E
:1026000030B5002304248C40A3B2048C9C43048482
:10261000048C02FA01F5ADB22C43048430BD70B5D0
:102620000346002000241846183001258D40ACB226
:102630001D8CA5431D8409B1082909D100EB610057
:10264000056825F0700505600568154305600EE016
:102650000D1FC5F34E052844056825F4E0450560C7
:1026600005684FF6FF7606EA02263543056070BD21
:1026700021B1028842F00202028004E002884FF693
:10268000FD731A400280704721B1028842F00402B3
:10269000028004E002884FF6FB731A400280704704
:1026A00021B1828842F08002828004E082884FF665
:1026B0007F731A408280704702884FF6F7731A4082
:1026C000028002880A430280704782884FF68F7327
:1026D0001A40828082880A438280704702894FF6BE
:1026E000F8731A40028102890A4302817047028905
:1026F0004FF67F731A40028102890A4302817047B4
:102700008184704781857047818670470187704753
:1027100081877047A0F84010704702884FF6FF434A
:102720001A40028002880A43028070470146888E60
:1027300070470146088F70470146888F70470146F1
:10274000B1F8400070470146888C70470146088DFB
:10275000704702460020138A0B400BB1012000E0B5
:1027600000207047CA430282704730B502460020FD
:1027700000230024158A05EA0103958905EA01046E
:1027800013B10CB1012000E0002030BDCA43028229
:10279000704700004FF0E020006920F004004FF087
:1027A000E02108610920364908700846007800EBEE
:1027B0004001C1EBC0104FF6FF7101EAC000314982
:1027C00008807047002120F07F402D4A1278424354
:1027D0004FF0E0235A6100229A6101221A6100BF82
:1027E0004FF0E022116901F001021AB101F48032C8
:1027F000002AF5D000224FF0E0231A619A61704759
:10280000002100B9704720F07F401E4A12884243E1
:102810004FF0E0235A6100229A6101221A6100BF41
:102820004FF0E022116901F001021AB101F4803287
:10283000002AF5D000224FF0E0231A619A6100BF10
:10284000E0E770B50446002600254FF4FA7094FBCB
:10285000F0F0C6B24FF4FA7094FBF0F100FB1140B7
:1028600085B205E04FF4FA70FFF7CAFF701EC6B2DA
:10287000002EF7D115B12846FFF7C2FF70BD00004A
:10288000280000202A00002010B586B0044601214F
:102890000420FEF729FA01218803FEF725FA182003
:1028A0008DF817004FF40070ADF8140003208DF878
:1028B000160005A96B48FDF75BFF04208DF8170093
:1028C0000002ADF8140003208DF8160005A9654834
:1028D000FDF74EFF01940020ADF810000C20ADF87C
:1028E0000E000020ADF80C00ADF80A00ADF80800AD
:1028F00001A95D48FEF79FFA01215B48FEF727FB1F
:10290000012240F225515848FEF72DFB25208DF875
:10291000000001208DF8030000208DF80100022046
:102920008DF802006846FDF75AFE06B010BD10B5DE
:1029300086B0044601210420FEF7D6F9012148049F
:10294000FEF7DFF918208DF817000420ADF8140009
:1029500003208DF8160005A94248FDF709FF042061
:102960008DF817000820ADF8140003208DF816002C
:1029700005A93C48FDF7FCFE01940020ADF81000CD
:102980000C20ADF80E000020ADF80C00ADF80A00E8
:10299000ADF8080001A93548FEF74DFA012133488A
:1029A000FEF7D5FA012240F225513048FEF7DBFA56
:1029B00026208DF8000001208DF8030000208DF8FE
:1029C00001008DF802006846FDF709FE06B010BD53
:1029D0002DE9F04107460C46154600260DE014F897
:1029E000011B3846FEF720FB00BF40213846FEF7AA
:1029F00089FB0028F9D0701C86B2AE42EFDBBDE83F
:102A0000F0810FB430B5CBB0054601AC50A80090B2
:102A10004FF4947101A8009B4F9A06F049FA0020E8
:102A200000900BE014F8011B2846FEF7FDFA00BFEA
:102A300040212846FEF766FB0028F9D020780028C0
:102A4000F0D14BB030BC5DF814FB10B540F225510D
:102A50000548FEF76DFB18B120210348FEF75FFB28
:102A600010BD000000080140003801400044004053
:102A700008B501210C20FEF737F910208DF803006E
:102A80000001ADF8000003208DF8020069460D48F2
:102A9000FDF76EFE01200C4908600820ADF800002B
:102AA00069460A48FDF764FE00200949C1F88C0117
:102AB00008BD0020044908607047012002490860F1
:102AC0007047000000080140A0012142000C0140B5
:102AD000008021421FB501211120FEF705F9482091
:102AE0008DF80F004FF44070ADF80C0003A93A4880
:102AF000FDF73EFE28208DF80F000120ADF80C00F8
:102B000003A93648FDF734FE09210220FDF746FFF0
:102B100008210220FDF742FF00210846FDF73EFF95
:102B200017208DF8080001208DF80B0002208DF889
:102B300009008DF80A0002A8FDF751FD06208DF866
:102B4000080002A8FDF74BFD4FF4407000900120F3
:102B50008DF8060000208DF804000C208DF805008B
:102B60006846FEF737FB0120009008208DF805002D
:102B70006846FEF72FFB1FBD10B54FF40070FEF73F
:102B80008FFB012806D11648006880474FF400707B
:102B9000FEF797FB4FF48070FEF782FB012806D109
:102BA0001048006880474FF48070FEF78AFB10BD24
:102BB00010B50120FEF774FB28B10B480068804770
:102BC0000120FEF77EFB10BD054B1860054B196018
:102BD000054B1A60704700000010014000080140DA
:102BE0002C000020300000203400002008B5012116
:102BF0001020FEF779F810208DF803008001ADF861
:102C0000000003208DF8020069467648FDF7B0FD0C
:102C100008BD08B510208DF803008001ADF8000054
:102C200003208DF8020069466E48FDF7A1FD08BD3E
:102C300008B548208DF803004FF48060ADF800001F
:102C400069466848FDF794FD08BD10B5FFF7E1FF40
:102C50004FF480616348FDF738FE0520FFF7B2FDB1
:102C60004FF480615F48FDF732FE4FF4F070FFF7DC
:102C7000A9FD4FF480615B48FDF727FE3C20FFF77C
:102C8000A1FDFFF7D5FF4FF480615648FDF703FE25
:102C900004464FF4F070FFF795FDFFF7BAFF4FF4CD
:102CA00080615048FDF711FE204610BD70B5044606
:102CB000002500BF22E0FFF7ACFF4FF480614948D8
:102CC000FDF705FE0220FFF77DFD04F0010028B1AD
:102CD0004FF480614348FDF7F8FD04E04FF4806154
:102CE0004048FDF7F4FD3C20FFF76CFD4FF4806198
:102CF0003C48FDF7EAFD6410681CC5B2082DDADB1C
:102D000070BD70B50024002500BF21E06410FFF7FE
:102D100080FF4FF480613348FDF7D9FD0220FFF7B3
:102D200051FD4FF480612F48FDF7CFFD0220FFF7E2
:102D300049FDFFF77DFF4FF480612A48FDF7ABFDA9
:102D400008B144F080043C20FFF73CFD681CC5B28C
:102D5000082DDBDB204670BD2DE9F84F4FF0000B4E
:102D6000002021490870FFF770FFCC20FFF79EFF7D
:102D70004420FFF79BFF40F2EE20FFF762FDFFF7D4
:102D800064FFCC20FFF792FFBE20FFF78FFFFFF715
:102D9000B8FF8246FFF7B5FF81464C464FF6FF70FD
:102DA00000EA042444EA0A0404F47840B0F5784FB9
:102DB00005D1E043401C84B201200B490870204635
:102DC00008F0FEFB009008F0ADFA07460022074B22
:102DD00008F0B4F8054607F051FE83465846BDE8B2
:102DE000F88F000000100140380000200000B03FC4
:102DF0002DE9F04706460F4614461D46DDF820A093
:102E0000681E83B2601E82B23946304600F08BFCE9
:102E1000B8460EE0B14606E0504600F06DFC09F100
:102E200001001FFA80F9A145F6DB08F101001FFA45
:102E300080F8A845EEDBBDE8F08770B504460D4686
:102E400016462B4622462946204600F06CFC3046AA
:102E500000F052FC70BD2DE9FF4F85B081468A46D7
:102E60000020039083460798A0EB09040898A0EB84
:102E70000A06CDF80890CDF804A0002C01DD01274A
:102E800005E00CB9002702E04FF0FF376442002E46
:102E900002DD4FF0010806E016B94FF0000802E02D
:102EA0004FF0FF386642B44201DD254600E035466A
:102EB000002004901EE0019A91B2029A90B2129AF8
:102EC000FFF7BBFF039820440390B3440398A84244
:102ED00005DD0398401B0390029838440290AB45EF
:102EE00004DDABEB050B0198404401900498401CB5
:102EF00080B20490691C04988842DCDB09B0BDE80C
:102F0000F08F2DE9F84305460E4617469846089C73
:102F100033463A46314628460094FFF79CFF434625
:102F20002A46314628460094FFF795FF43463A4625
:102F3000414628460094FFF78EFF43463A46314605
:102F400038460094FFF787FFBDE8F8832DE9F04786
:102F500006460F46904699460025444641E07A1BB6
:102F600091B2321B90B24A46FFF767FF7A1B91B2CB
:102F7000321990B24A46FFF760FF3A1991B2721BBC
:102F800090B24A46FFF759FF3A1B91B2721B90B2BA
:102F90004A46FFF752FF7A1991B2321990B24A4667
:102FA000FFF74BFF3A1B91B2721990B24A46FFF7F6
:102FB00044FF3A1991B2721990B24A46FFF73DFFA9
:102FC0007A1991B2321B90B24A46FFF736FF6D1C58
:102FD00005FB05F004FB040108FB08F0814200DD5D
:102FE000641EA542BBDDBDE8F0872DE9FE4F064615
:102FF000894692469B460D9C00962046E11704EBBD
:103000005171C910614389B20191052002900025D8
:1030100065E005EB8510F94911F810009AF80010E9
:10302000884259D105EB8510F44901EB4000407806
:103030009AF8011088424FD109EB0400401E83B278
:103040003019401E82B24946304600F06CFB002722
:103050003FE04FF0000836E00E9898B905EB851078
:10306000E64901EB4000801CC05D012101FA08F136
:10307000084018B1584600F03FFB20E00C9800F0E3
:103080003BFB1CE005EB8510DC4901EB4000801C9C
:10309000C05D012101FA08F1084020B15A464946B5
:1030A0003046FFF7CAFE701C86B20098301AA04264
:1030B00005D1009E09F101001FFA80F906E008F130
:1030C000010000F0FF08B8F1080FC5DB00BF781C55
:1030D000C7B201988742BCDB00BF681C85B202986A
:1030E000854296DBBDE8FE8F2DE9FE4F06468946F8
:1030F00092469B460D9C00962046E11704EB5171C9
:10310000C910614389B201910520029000256DE04C
:1031100005EB850000EB4510B94911F810009AF84D
:10312000001088425FD105EB850000EB4510B449E3
:1031300001EB400040789AF80110884253D109EB26
:103140000400401E83B23019401E82B24946304608
:1031500000F0E9FA002743E04FF000083AE00E984B
:10316000A8B905EB850000EB4510A54901EB40002F
:10317000801CC05D012101FA08F1084018B15846D1
:1031800000F0BAFA22E00C9800F0B6FA1EE005EB67
:10319000850000EB45109A4901EB4000801CC05DA2
:1031A000012101FA08F1084020B15A46494630464B
:1031B000FFF743FE701C86B20098301AA04205D17A
:1031C000009E09F101001FFA80F906E008F10100F4
:1031D00000F0FF08B8F1080FC1DB00BF781CC7B2D0
:1031E00001988742B8DB00BF681C85B2029885420F
:1031F0008EDBBDE8FE8F2DE9FE4F064689469246DE
:103200009B460D9C00962046E11704EB5171C910B6
:10321000614389B201911A200290002565E005EB17
:103220000510784911F810009AF80010884259D119
:1032300005EB0510734901EB400040789AF8011046
:1032400088424FD109EB0400401E83B23019401E62
:1032500082B24946304600F066FA00273FE04FF060
:10326000000836E00E9898B905EB0510654901EBAA
:103270004000801CC05D012101FA08F1084018B12E
:10328000584600F039FA20E00C9800F035FA1CE0BE
:1032900005EB05105B4901EB4000801CC05D01217E
:1032A00001FA08F1084020B15A4649463046FFF776
:1032B000C4FD701C86B20098301AA04205D1009E51
:1032C00009F101001FFA80F906E008F1010000F0A1
:1032D000FF08B8F1080FC5DB00BF781CC7B2019822
:1032E0008742BCDB00BF681C85B20298854296DB32
:1032F000BDE8FE8F2DE9FE4F8046894615469A4669
:10330000DDE90D470C9E2AE0102C09D153462A46D0
:1033100049464046CDE901470096FFF76CFF19E0AA
:10332000182C09D153462A4649464046CDE9014763
:103330000096FFF7D9FE0DE0202C09D153462A460E
:1033400049464046CDE901470096FFF74EFE01E0B1
:10335000BDE8FE8FAD1C08EB04001FFA80F828784A
:103360000028D1D100BFF3E72DE9FF4F83B0054618
:103370008A461746119CAB46204604EBD071C1F338
:1033800047063046F11706EB5171C910614389B207
:103390000191A7F12000C7B20AEB0400401E83B2DE
:1033A000A819401E82B25146284600F0BCF94FF0E1
:1033B000000954E0102C06D1134800EB071010F858
:1033C000090002900BE0202C06D1104800EB87107A
:1033D00010F80900029002E007B0BDE8F08F4FF04E
:1033E000000834E01298B8B9012000FA08F00299F8
:1033F000084068B1069800F07FF924E0E4DA00089C
:1034000072D90008FED500084EB800083EBE00087C
:10341000109800F071F916E0012000FA08F0029906
:10342000084020B151462846069AFFF706FD681C61
:1034300085B2A5EB0B00B04205D15D460AF1010053
:103440001FFA80FA06E008F1010000F0FF08B8F169
:10345000080FC7DB00BF09F101001FFA80F90198CE
:103460008145A7DB00BFB7E72DE9FE4F06460F46B3
:1034700014469846DDE90D5ADDF8309010E0CDE9AC
:10348000015ACDF800902278434639463046FFF77E
:103490006BFF284605EBD07106EB61018EB2641C10
:1034A00020780028EBD1BDE8FE8F10B50246012040
:1034B00000E050430B1EA1F10104E1B2F9D110BDAF
:1034C0002DE9FF4F85B0074691461D46DDE913A65D
:1034D00000200490304606EBD071C1F3470B002466
:1034E00034E0281B401EC1B20A20FFF7DEFFB9FB03
:1034F000F0F00A21B0FBF1F201FB12080498A0B928
:10350000681EA04211DDB8F1000F0CD1002004FBB1
:103510000B71CDE900A6029088B22022129B069979
:10352000FFF722FF10E001200490002008F1300195
:10353000CAB204FB0B71CDE900A6029088B2129BBF
:103540000699FFF711FF00BF601CC4B2AC42C8DB94
:1035500009B0BDE8F08F2DE9FF4F85B007469046D2
:103560001C46DDE91396304606EBD071C1F3470BDC
:103570003A49404608F06CF8039007F0E9FF80B242
:103580000490002531E0601B401EC1B20A20FFF705
:103590008CFF0499B1FBF0F00A21B0FBF1F201FBC2
:1035A000120AA01EA84210D10020A11E01FB0B711F
:1035B000CDE90096029088B22E22129B0699FFF761
:1035C000D3FE681CC5B2601CC4B200200AF13001F1
:1035D000CAB205FB0B71CDE90096029088B2129B2E
:1035E0000699FFF7C1FE681CC5B2A542CBDB09B046
:1035F000BDE8F08F2DE9F05F0746884615461E4668
:10360000DDF82890002408EB0600401E83B27819EC
:10361000401E82B24146384600F085F8A24619E0C5
:103620004FF0000B10E019F8140000F05FF80121D2
:1036300001EB440119F8010000F058F8601C84B255
:103640000BF101001FFA80FBB345ECDB0AF101002E
:103650001FFA80FAAA45E3DBBDE8F09F0000C842EC
:1036600008B501210920FDF73FFB0121BC48FDF70A
:1036700050F94FF47C70ADF8000010208DF8030075
:1036800003208DF802006946B648FDF771F84FF443
:103690007C71B448FDF719F908BD70B504464FF4C4
:1036A0008071B048FDF713F9002517E01021AD48EF
:1036B000FDF70DF904F0800020B12021A948FDF7A5
:1036C00004F903E02021A748FDF701F91021A548DE
:1036D000FDF7FBF86006040E681CC5B2082DE5DB9B
:1036E0004FF480719F48FDF7F0F870BD10B50446A7
:1036F0002046FFF7D2FF10BD10B504462012FFF799
:10370000CCFFE0B2FFF7C9FF10BD10B50446802121
:103710009448FDF7DCF82046FFF7BFFF8021914871
:10372000FDF7D3F810BD2DE9F04104460D461646CD
:103730001F462A20FFF7E9FFA11C88B2FFF7DCFF34
:10374000B11C88B2FFF7D8FF2B20FFF7DEFFE91C82
:1037500088B2FFF7D1FFF91C88B2FFF7CDFF2C200C
:10376000FFF7D3FFBDE8F08110B5FFF779FF4021E7
:103770007C48FDF7ACF86420FFF763F840217948F6
:10378000FDF7A3F86420FFF75CF84FF4007175486B
:10379000FDF79BF86420FFF754F81120FFF7B5FF01
:1037A0007820FFF74EF8B120FFF7AFFF0220FFF7B8
:1037B0009DFF3520FFF79AFF3620FFF797FFB220D5
:1037C000FFF7A3FF0220FFF791FF3520FFF78EFFE1
:1037D0003620FFF78BFFB320FFF797FF0220FFF79C
:1037E00085FF3520FFF782FF3620FFF77FFF02209D
:1037F000FFF77CFF3520FFF779FF3620FFF776FFD4
:10380000B420FFF782FF0320FFF770FFC020FFF70F
:103810007CFFA220FFF76AFF0220FFF767FF8420EA
:10382000FFF764FFC120FFF770FFC520FFF75EFFC1
:10383000C220FFF76AFF0D20FFF758FF0020FFF7B7
:1038400055FFC320FFF761FF8D20FFF74FFF2A20B0
:10385000FFF74CFFC420FFF758FF8D20FFF746FF0E
:10386000EE20FFF743FFC520FFF74FFF0A20FFF7C9
:103870003DFF3620FFF749FFC820FFF737FFE02064
:10388000FFF743FF1220FFF731FF1C20FFF72EFF49
:103890001020FFF72BFF1820FFF728FF3320FFF73A
:1038A00025FF2C20FFF722FF2520FFF71FFF2820F0
:1038B000FFF71CFF2820FFF719FF2720FFF716FF4F
:1038C0002F20FFF713FF3C20FFF710FF0020FFF72A
:1038D0000DFF0320FFF70AFF0320FFF707FF10206B
:1038E000FFF704FFE120FFF710FF1220FFF7FEFEB5
:1038F0001C20FFF7FBFE1020FFF7F8FE1820FFF753
:10390000F5FE2D20FFF7F2FE2820FFF7EFFE232023
:10391000FFF7ECFE2820FFF7E9FE2820FFF7E6FE80
:103920002620FFF7E3FE2F20FFF7E0FE3B20FFF706
:10393000DDFE0020FFF7DAFE0320FFF7D7FE0320AD
:10394000FFF7D4FE1020FFF7D1FE3A20FFF7DDFE8F
:103950000520FFF7CBFE2920FFF7D7FE10BD0000A2
:1039600000023000000C014008B501210820FDF7DD
:10397000BBF910208DF80300C002ADF80000032051
:103980008DF8020069460748FCF7F2FE0020064960
:10399000086008BD01200449086070470020024902
:1039A00008607047000C0140BC81214200B591B015
:1039B00001214FF40270FDF797F901210846FDF748
:1039C00086F900208DF843000120ADF8400010A9D1
:1039D0007E48FCF7CDFE01208DF8310000200E90CE
:1039E0004FF460200D9000200B9001208DF83C00DA
:1039F00000208DF830000BA97548FDF792FC4FF4BC
:103A00004040FDF7D5F80523012208217048FDF755
:103A100020FD7048FDF786FE0120039000200290F3
:103A20000A906D4801904FF4806007900020059047
:103A30002020089066484C300090801506900020A9
:103A400004904FF40050099069466248FDF70CFF5E
:103A500001215F48FDF791FC01215E48FDF72FFF32
:103A600001215B48FDF794FC5948FDF7A8FC00BF15
:103A70005748FDF7A9FC0028FAD15548FDF7AEFCE0
:103A800000BF5348FDF7AFFC0028FAD10121504890
:103A9000FDF7B3FC11B000BD2DE9F04F97B0002049
:103AA000169015904FF07E501490002013904FF018
:103AB0007E5012904848008807F082FD81464FF002
:103AC0008B4107F067FC044607F02CFC07464FF0DB
:103AD0006632424B07F032FA054606F0CFFF1690E9
:103AE0003F4814901499169807F054FC15901298BA
:103AF00007F018FCCDE90E01159807F013FC0446F9
:103B0000384A394B07F01AFACDE90801159807F041
:103B100009FC04460D46159807F004FC8046334A1C
:103B2000334B07F00BFA064622462B4607F006FAFF
:103B3000CDE90401159807F0F5FB82468B461598F0
:103B400007F0F0FB04460D46159807F0EBFB064620
:103B5000284A294B07F0F2F9804622462B4607F007
:103B6000EDF952465B46CDE9000107F0E7F9CDE9F2
:103B70000201DDE9042307F0EBFACDE90601DDE9F6
:103B8000082306F0ADFF00221C4BCDE90A0107F027
:103B9000D5F9CDE90C01DDE90E2307F0CFF9CDE928
:103BA000100106F06BFF13900021139807F01CFD25
:103BB00001D8002013901249139807F015FE01D286
:103BC0000F481390139817B0BDE8F08F000C014018
:103BD00000240140080002403A00002066660A40C6
:103BE000713D0A3F85EB51B81ECB8A40EC51B81E9F
:103BF00085FB6F403D0AD7A370AD60400000E03FF9
:103C00000000AF4410B500F0ADF8472000F02FF9E8
:103C100000240CE000F059F928490855032C02D182
:103C200000F012F901E000F0FAF8601CC4B2032CB5
:103C3000F0DB00F0B1F80520FEF703FE10BD10B573
:103C4000044600F08FF8462000F011F9204600F0FD
:103C50000EF900F0A1F810BD10B50120FFF7EFFF3D
:103C600010BD2DE9F0410120FFF7E9FF1020FFF71B
:103C7000E6FFB420FEF7E5FDFFF7C4FF0F4800782C
:103C80000F4908600D484078096800EB01200C4995
:103C900008600846006807F07BFC804607F042FB9E
:103CA00006464FF03332074B06F0C2FF044606F0DB
:103CB000E5FE05490860BDE8F08100003C000020F9
:103CC000480000203333F33F4400002008B50121B1
:103CD0000820FDF709F84FF44060ADF8000003201C
:103CE0008DF8020010208DF8030069469048FCF71B
:103CF0003FFD08BD08B501210820FCF7F5FF4FF492
:103D00000060ADF8000004208DF803006946884883
:103D1000FCF72EFD08BD08B501210820FCF7E4FFE3
:103D20004FF40060ADF8000003208DF80200102071
:103D30008DF8030069467E48FCF71AFD08BD10B5F2
:103D40000620FEF73FFD10BD10B54FF40061784826
:103D5000FCF7BBFD4FF480617548FCF7B6FDFFF73B
:103D6000EEFF10BD10B54FF400617148FCF7ADFDDA
:103D70004FF480616E48FCF7A8FDFFF7E0FF4FF4B9
:103D800000616B48FCF7A3FD4FF480616848FCF7C5
:103D90009EFDFFF7D4FF10BD10B54FF4806164485D
:103DA000FCF793FD4FF400616148FCF790FDFFF7CD
:103DB000C6FF4FF400615E48FCF787FD4FF4806159
:103DC0005B48FCF784FDFFF7BAFF10BD10B5FFF7A5
:103DD00091FF4FF480615648FCF779FD4FF4806104
:103DE0005348FCF772FDFFF7AAFF05E0601C84B2A0
:103DF000642C01D1002010BD4FF400614C48FCF749
:103E00004AFD08B1642CF1DB4FF480614848FCF7AF
:103E10005EFDFFF794FFFFF77EFF0120EBE710B593
:103E20004FF400614248FCF752FD4FF48061404876
:103E3000FCF74BFDFFF783FF4FF480613C48FCF734
:103E400046FDFFF77CFF10BD10B54FF40061384808
:103E5000FCF73BFD4FF480613548FCF736FDFFF77A
:103E60006EFF4FF480613248FCF731FD10BD70B534
:103E7000044600251FE004F08000802804D10101E1
:103E80002B48FCF722FD04E04FF400612848FCF7C2
:103E90001EFD4FF480612648FCF717FDFFF74FFF2A
:103EA0004FF480612248FCF712FDFFF748FF6006DF
:103EB000040E681CC5B2082DDDDB4FF400611C4800
:103EC000FCF705FDFFF782FF70BD70B50024FFF71A
:103ED00011FF4FF480611648FCF7F9FC4FF40061C4
:103EE0001348FCF7F2FCFFF72AFF002519E06006F3
:103EF000040E4FF480610E48FCF7E7FCFFF71FFF4C
:103F00004FF400610A48FCF7C6FC08B144F0010414
:103F10004FF480610648FCF7DAFCFFF710FF681CDD
:103F2000C5B2082DE3DBFFF7F6FE204670BD0000AA
:103F3000000C014000B589B001214803FCF7D4FE14
:103F400001211020FCF7D0FE18208DF823008020DE
:103F5000ADF8200003208DF8220008A91E48FCF7C8
:103F600007FC1E48FEF76CF90020ADF81A00ADF80A
:103F700016006320ADF8180040F2CF20ADF8140011
:103F800000208DF81C0005A91448FDF7C9FD01A803
:103F9000FEF7FBF86020ADF804000020ADF80C003F
:103FA0000120ADF806000020ADF80A0001A90B4879
:103FB000FDF735FE01210948FEF70EF901210748FA
:103FC000FEF716F909B000BD10B5044621460348B6
:103FD000FEF79CFB10BD00000010014000340140C2
:103FE00008B54FF4A060FCF7F5FAFEF7D3FB4FF4E9
:103FF000E130FEF749FC4FF4E130FEF798FCFFF7A3
:10400000B3FBFEF735FDFFF7AFFCFEF7EFFDFFF763
:10401000CDFCFEF75FFDFFF759FEFFF78BFFFAA11E
:10402000FE48FEF7EEFC4FF6FF7080231A46002193
:1040300000900846FEF7DCFE08BD0EB5F848007893
:10404000012804D002281FD0032869D142E00020B3
:1040500010214FF6FF724FF47843CDE90021029012
:104060003C2223215F20FFF77FF9002010214FF62B
:10407000FF724FF47843CDE9002102902D222321D5
:104080006920FFF771F94BE04FF6FF703C23802267
:10409000232100905F20FEF7ABFE002010214FF699
:1040A000FF724FF47843CDE9002102903C22114683
:1040B0005F20FFF759F9002010214FF6FF724FF4EF
:1040C0007843CDE9002102902D223C216920FFF7A1
:1040D0004BF925E04FF6FF70552380223C210090DC
:1040E0005F20FEF785FE002010214FF6FF724FF48F
:1040F0007843CDE9002102903C2255215F20FFF753
:1041000033F9002010214FF6FF724FF47843CDE9C8
:10411000002102902D2255216920FFF725F900BFCB
:1041200000BF0EBD0EB5002010214FF6FF720346F2
:10413000CDE900210290BBA20A210F20FFF7DAF897
:10414000002010214FF6FF720346CDE900210290B6
:10415000B8A223210520FFF7CDF810204FF6FF71FC
:1041600000220223CDE900210290B54802782321E4
:104170004B20FFF7A5F9002010214FF6FF720346F0
:10418000CDE900210290AFA23C210520FFF7B2F853
:1041900010204FF6FF7100220223CDE9002102908A
:1041A000AB4802783C214B20FFF78AF90020102110
:1041B0004FF6FF720346CDE900210290A5A25521DA
:1041C0000520FFF797F810204FF6FF710022022319
:1041D000CDE900210290A248027855214B20FFF73B
:1041E0006FF9FFF72AFF0EBD30B589B0142104A87E
:1041F00005F0FFF8002010214FF6FF720346CDE9CD
:104200000021029097A203212520FFF773F8974819
:104210000078012835D1002010214FF6FF720346A7
:10422000CDE90021029092A215210520FFF762F846
:10423000002010214FF6FF720346CDE900210290C5
:104240003A2215212520FFF78FF8002010214FF684
:10425000FF720346CDE9002102902D2215212F2067
:10426000FFF782F810204FF6FF7100220423CDE9FA
:10427000002102908048152102683A20FFF76BF96F
:1042800041E0002010214FF6FF720346CDE90021E6
:10429000029077A215210520FFF72CF800201021AD
:1042A0004FF6FF720346CDE9002102903A22152114
:1042B0002520FFF759F8002010214FF6FF72034622
:1042C000CDE9002102902B2215212F20FFF74CF879
:1042D00010204FF6FF7100220423CDE90021029047
:1042E0006548152102683A20FFF735F900201021B2
:1042F0004FF6FF720346CDE9002102905FA215211F
:104300006420FEF7F7FF002010214FF6FF720346EE
:10431000CDE9002102905AA228210520FFF7A4F838
:10432000142104A805F065F85748006806F0FAFF64
:10433000044622460B4655A104A804F0D3FD4FF6CF
:10434000FF703B235A22282100905020FEF750FD99
:10435000002010214FF6FF720346CDE900210290A4
:1043600004AA28212F20FFF77FF8002010214FF604
:10437000FF720346CDE90021029046A226215A2071
:10438000FFF772F8002010214FF6FF720346CDE9C7
:104390000021029040A23C210220FEF7ABFF00204A
:1043A00010214FF6FF720346CDE9002102903A2218
:1043B0003C214020FEF7D8FF142104A805F019F88D
:1043C0003848006806F0AEFF044622460B462FA18F
:1043D00004A804F087FD4FF6FF704E236E223C21A7
:1043E00000906920FEF704FD002010214FF6FF72B7
:1043F0000346CDE90021029004AA3C214820FFF7A2
:1044000033F8002010214FE0204861726477617218
:104410006520696E6974204F4B0D0A000038014019
:1044200059000020E3D0D6B5C9E8D6C3BDE7C3E63E
:1044300000000000CEC2B6C8E3D0D6B50000000030
:1044400056000020CBAED6CAE3D0D6B5000000009F
:1044500057000020B5C6B9E2E3D0D6B50000000091
:1044600058000020D6F7BDE7C3E600003800002062
:10447000CBAECEC2000000004C000020A1E6000040
:10448000544453203A00000050000020252E31668D
:104490000000000070706D00B9E2D5D5C7BFB6C886
:1044A00000000000440000204FF6FF720346CDE9F3
:1044B00000210290FBA23C216E20FEF7D5FF0020D8
:1044C00010214FF6FF720346CDE900210290F6A2BB
:1044D00050210520FEF70EFF002010214FF6FF723D
:1044E0000346CDE9002102903A2250212520FEF713
:1044F0003BFFEF48007801280ED1002010214FF635
:10450000FF724FF47843CDE900210290E9A25021D7
:104510002D20FEF7EFFE0CE0002010214FF6FF7279
:104520000346CDE900210290E3A250212D20FEF7A1
:10453000E1FE002010214FF6FF720346CDE9002175
:104540000290DEA250214120FEF7D4FE002010216F
:104550004FF6FF720346CDE9002102903A22502126
:104560006120FEF701FFD748007870B100201021CC
:104570004FF6FF724FF47843CDE900210290CDA2AF
:1045800050216920FEF7B6FE0CE0002010214FF606
:10459000FF720346CDE900210290C7A25021692095
:1045A000FEF7A8FEC848007870B1002010214FF631
:1045B000FF724FF47843CDE900210290C3A2692134
:1045C0000520FEF797FE08E04FF6FF7080231A469D
:1045D000692100900520FEF70BFC09B030BD2DE9E4
:1045E000F84F00200090BC48007806F0E9FF044630
:1045F000BA480168204607F0F7F805D2FFF7CAF974
:104600000120AB49087004E0FFF7C8F90020A84971
:104610000870B348007806F0D3FF0446B14801683B
:10462000204607F0E1F81ED80120A6490870AD48E1
:10463000006806F077FE80460022AB4B06F0F8FAE1
:1046400006460022A94B06F079FC04460022A74B3F
:1046500006F072FD824606F043FC80B2009000989E
:10466000FFF7B2FC04E0002096490870FFF7ACFCAD
:104670009F48006806F050FF9E490978884205DB94
:10468000012091490870FEF714FA04E000208E49D9
:104690000870FEF712FABDE8F88F10B50520FEF796
:1046A000D0F895480068012816D10A20FEF7C9F80D
:1046B0009148006801280FD100BF8F480068012889
:1046C000FBD08E490978481CC11700EB9171891005
:1046D000A0EB8101894A117010BD10B50520FEF7CD
:1046E000B0F88748006830BB0A20FEF7AAF8844873
:1046F000006800BB00BF824800680028FBD07F48EC
:104700000078012804D0022808D0032812D10BE039
:1047100071480078401C704908700BE075480078BB
:10472000401C7449087005E06D480078401C6C49D5
:10473000087000BF00BF10BD10B50520FEF781F85E
:104740006F48001D006840BB0A20FEF77AF86C48ED
:10475000001D006808BB00BF6948001D00680028F4
:10476000FAD066480078012804D0022808D003282F
:1047700012D10BE058480078401E574908700BE0F2
:104780005C480078401E5B49087005E0544800789A
:10479000401E5349087000BF00BF10BD0EB5002574
:1047A0000024FFF71DFC01F0D5FD56A15C48FEF783
:1047B00028F903E04FF4FA70FEF722F859A15B489C
:1047C00001F069FD0028F5D159A15548FEF719F906
:1047D00003E04FF4FA70FEF713F800F029F900280F
:1047E000F7D14FF6FF7080231A460021009008464B
:1047F000FEF7FEFA002010214FF6FF724FF47843C7
:10480000CDE90021029052A20A210520FEF72CFEDC
:10481000002010214FF6FF724FF47843CDE90021BC
:1048200002904FA21E210520FEF71EFEFEF741F961
:10483000FA20FDF7E5FFFEF740F900F097FAAFF236
:10484000A512AFF26911AFF20F10FEF7BDF940F6F5
:10485000C410FDF7F6FF4FF6FF7080231A460021C3
:1048600000900846FEF7C4FAC3E0FFF7FAF9681CA7
:1048700080B20546142814DBFEF76EFA174908606B
:10488000FFF70AF91A4908600846006806F044FE76
:1048900006461248006806F03FFE074633463A4691
:1048A00064E070E04C580000BCD3C8C800000000B1
:1048B0005B000020BFAA0000B9D80000D5D5C3F71F
:1048C000000000005400002055000020CBAED6CAE6
:1048D000D2ECB3A300000000560000204C000020E2
:1048E00058000020440000200000344000005940DF
:1048F00050000020570000200001214259000020F4
:1049000020012242436F6E6E656374204D515454F2
:1049100073205365727665722E2E2E0D0A000000EC
:1049200000380140434F4E4E45435400C4DE00085A
:10493000436F6E6E656374204D51545473205365FC
:104940007276657220537563636573730D0A000098
:10495000436F6E6E6563742054656E63656E74009C
:1049600020205375636365737321000021A12848DB
:10497000FEF747F827A12648FEF743F800F08AF92A
:10498000002501F069FCFFF72AFE2748007888B966
:104990002648007858B94FF6FF7080231A46002148
:1049A00000900846FEF724FA012020490870FFF71E
:1049B0001BFC12E01D48007801280BD14FF6FF7058
:1049C00080231A46002100900846FEF711FA0020C5
:1049D00016490870FFF7A6FB00BF00BF002001F0DA
:1049E00097FC044614B1204600F084FB0520FDF737
:1049F00007FF3AE774656D703D25642C7761746537
:104A0000725F7175616C6974793D25640D0A0000EF
:104A10000038014074656E674E65745F53656E645F
:104A2000446174610D0A0000590000205A00002002
:104A300070B5D2B000202E902F903090319001258B
:104A40008022002132A804F0AAFC32A9D3A001F0F0
:104A500033FE32A804F001FC064632AB06AA272139
:104A60000090D5A001F0B4FDDDA106A804F014FC6F
:104A700006A8D1A3DDA2E1A10090EC48FDF7C1FF9B
:104A80002EA8002102910391CDE9041008460121CE
:104A90000B02D6A2CDE9001006A9C7A000F081FD47
:104AA000002842D12F9A91B22E9801F01AFCFA20D8
:104AB00001F02EFC0446002C33D0204600F03CFDD3
:104AC00002282ED1204600F0D1FE062823D2DFE8AE
:104AD00000F003090E13181DD5A1D448FDF791FF6E
:104AE00000251DE0D7A1D148FDF78BFF18E0DCA120
:104AF000CE48FDF786FF13E0E2A1CC48FDF781FF29
:104B00000EE0E8A1C948FDF77CFF09E0EEA1C74827
:104B1000FDF777FF04E0F7A1C448FDF772FF00BF7F
:104B200000BF2EA800F0C0FC03E0F9A1BF48FDF7CC
:104B300068FF284652B070BD70B58CB00446302175
:104B4000684604F056FCFBA1204604F062FB3021CD
:104B5000684604F04EFCFCA1684604F0C3F96946BF
:104B6000204604F099FB3021684604F042FCFE48E0
:104B7000006806F0D7FB05462A460B46FBA16846AF
:104B800004F0B0F96946204604F086FB30216846FF
:104B900004F02FFCF948006806F0C4FB05462A46DD
:104BA0000B46F7A1684604F09DF96946204604F0DB
:104BB00073FB3021684604F01CFCF748006806F0DF
:104BC000B1FB05462A460B46F4A1684604F08AF973
:104BD0006946204604F060FB3021684604F009FC79
:104BE000F2480278F2A1684604F07CF96946204652
:104BF00004F052FB3021684604F0FBFBEF480278DA
:104C0000EFA1684604F06EF96946204604F044FBC3
:104C10003021684604F0EDFBEC480278ECA16846D0
:104C200004F060F96946204604F036FB30216846FE
:104C300004F0DFFBEB480278EBA1684604F052F980
:104C40006946204604F028FB3021684604F0D1FB79
:104C5000E9480278E9A1684604F044F9694620462B
:104C600004F01AFB3021684604F0C3FBE8480278E0
:104C7000E8A1684604F036F96946204604F00CFBCA
:104C8000E9A1204604F008FB204604F0E6FAC0B291
:104C90000CB070BD30B5C5B000204190429043903B
:104CA000449000240025E1A16048FDF7AAFE4FF4DE
:104CB000807101A804F09DFB01A8FFF73DFF0446A9
:104CC000002C26D041A80023224648A100903AA0FB
:104CD00000F0BDFEC8B908E001A8415D429A501C31
:104CE000429041988154681C05B2A542F4DB429A77
:104CF00091B2419801F0F5FAD4A14C48429AFDF7DF
:104D000080FE41A800F0D0FB03E0D4A14748FDF7A6
:104D100078FE45B030BD70B588B005460C46002021
:104D2000049005900690079023462A46D3A13F4859
:104D3000FDF767FE204604F090FA064604A801211C
:104D4000002200923346CDE90121039022462946F4
:104D50000A2000F09AFD38B9059A91B2049801F042
:104D6000C0FA04A800F0A0FB08B070BD00B595B073
:104D70000020119012901390149003A80290C7A2E3
:104D8000382104F0C5F803AACDA12848FDF739FE63
:104D900011A8012302AA002100909DE16370786EA2
:104DA000455071424A6D436E35495A2B65485178DA
:104DB0004F673D3D0000000052484542305245419A
:104DC0004E326431313B31323031303132363B6337
:104DD000326431313B31373333383439333836008C
:104DE0003B686D6163736861310000005248454261
:104DF000305245414E3264313100000074656E67B7
:104E000078756E5F4465764C696E6B0D0A4E414D48
:104E1000453A2025732C0950524F49443A202573B6
:104E20002C094B45593A25730D0A00000038014002
:104E3000546970733A09C1ACBDD3B3C9B9A60D0AA0
:104E4000000000005741524E3A09C1ACBDD3CAA779
:104E5000B0DCA3BAD0ADD2E9B4EDCEF30D0A0000B8
:104E60005741524E3A09C1ACBDD3CAA7B0DCA3BA70
:104E7000B7C7B7A8B5C4636C69656E7469640D0A79
:104E8000000000005741524E3A09C1ACBDD3CAA739
:104E9000B0DCA3BAB7FECEF1C6F7CAA7B0DC0D0AE4
:104EA000000000005741524E3A09C1ACBDD3CAA719
:104EB000B0DCA3BAD3C3BBA7C3FBBBF2C3DCC2EB5A
:104EC000B4EDCEF30D0A00005741524E3A09C1AC81
:104ED000BDD3CAA7B0DCA3BAB7C7B7A8C1B4BDD306
:104EE00028B1C8C8E7746F6B656EB7C7B7A8290D3E
:104EF0000A0000004552523A09C1ACBDD3CAA7B05E
:104F0000DCA3BACEB4D6AAB4EDCEF30D0A000000ED
:104F10005741524E3A094D5154545F5061636B658D
:104F200074436F6E6E656374204661696C65640DD1
:104F30000A0000007B226D6574686F64223A227259
:104F400065706F7274222C0022636C69656E7454F4
:104F50006F6B656E223A22313233222C22706172DD
:104F6000616D73223A7B00004C0000202274656D55
:104F700070223A252E32662C0000000050000020DE
:104F80002277617465725F7175616C697479223A18
:104F9000252E32662C00000044000020226C696738
:104FA0006874223A252E32662C000000550000203D
:104FB000224C4544223A25642C0000005400002075
:104FC000224C454432223A25642C00005B0000202C
:104FD000227377697463685F686F74223A25642C62
:104FE0000000000058000020226C65645F6C696D51
:104FF0006974223A25642C00560000202274656DE5
:10500000705F6C696D6974223A25642C00000000A1
:10501000570000202277617465725F6C696D697456
:10502000223A2564000000007D7D00005469707301
:105030003A094F6E654E65745F53656E64446174E2
:10504000612D4D5154540D0A0000000053656E64EB
:105050002025642042797465730D0A005741524E31
:105060003A094544505F4E65774275666665722021
:105070004661696C65640D0A000000005075626C41
:1050800069736820546F7069633A2025732C204D32
:1050900073673A2025730D0A0000000024746869C4
:1050A0006E672F646F776E2F70726F706572747990
:1050B0002F52484542305245414E322F6431310023
:1050C00053756273637269626520546F7069633AE5
:1050D0002025730D0A000000142000F0C0FD38B92F
:1050E000129A91B2119801F0FCF811A800F0DCF9C5
:1050F00015B000BD2DE9F047A6B0814600202590EF
:1051000024902390229021900027804682460025FB
:105110000024484600F010FA0746032F04D0042F5D
:105120003FD0092F54D145E0824821A922AA25ABBE
:10513000CDE90021029023AA24A9484600F0C9FE27
:105140008046B8F1000F2BD10026BDF888002599C4
:10515000CDE90010BDF88C3077A18648249AFDF780
:1051600050FC85A1249804F042F80646BEB12F21D8
:10517000304604F020F80646761C24223146684664
:1051800004F096F800208DF824007EA250210AA891
:1051900003F0BEFE83A10AA8FFF7BDFD00BF00BF5C
:1051A00000BF484600F095FF18B980A17148FDF78F
:1051B00028FC10E0484600F0D1FD20B983A16D48DD
:1051C000FDF71FFC03E088A16A48FDF71AFC02E026
:1051D0004FF0FF3800BF00BF01F03EF808F10100BA
:1051E00010B926B0BDE8F08786A1259803F0FFFF2F
:1051F00082463A21259803F0DEFF8246BAF1000F7D
:1052000075D008F101000028FAD080A1259803F09C
:10521000EEFF10B1FDF74DFC06E07EA1259803F0EE
:10522000E6FF08B1FDF749FC7CA1259803F0DFFFFC
:10523000041E21D07CA1204603F0D9FF041E1BD000
:1052400000201E901F9020900025641C05E014F89B
:10525000012B28466D1C1EA90A542078302802DB39
:1052600020783928F3DD00201EA948551EA803F038
:1052700095FF05466D490D706DA1259803F0B7FFA8
:10528000041E21D068A1204603F0B1FF041E1BD0EC
:1052900000201E901F9020900025641C05E014F84B
:1052A000012B28466D1C1EA90A542078302802DBE9
:1052B00020783928F3DD00201EA948551EA803F0E8
:1052C0006DFF05465D490D705DA1259803F08FFFC8
:1052D000041E22D054A1204603F089FF041E1CD0D6
:1052E00000201E901F9020900025641C06E014E012
:1052F00014F8012B28466D1C1EA90A54207830286A
:1053000002DB20783928F3DD00201EA948551EA8AD
:1053100003F044FF05464D490D700F2F01D0032FB8
:1053200005D1249803F09DFD259803F09AFD00BF58
:1053300057E700005C000020746F7069633A202515
:10534000732C20746F7069635F6C656E3A202564FE
:105350002C207061796C6F61643A2025732C207069
:1053600061796C6F61645F6C656E3A2025640D0A2B
:105370000000000000380140726571756573742F7C
:1053800000000000247468696E672F75702F6163D8
:1053900074696F6E2F52484542305245414E322F4C
:1053A000643131006F6A626B0000000054697073F1
:1053B0003A094D515454205075626C6973682053FA
:1053C000656E64204F4B0D0A000000005469707335
:1053D0003A094D5154542053756273637269626582
:1053E000204F4B0D0A000000546970733A094D516B
:1053F00054542053756273637269626520457272FA
:105400000D0A0000706172616D730000224C45440A
:10541000223A3100224C4544223A300074656D70C6
:105420005F6C696D697400003A000000560000204E
:1054300077617465725F6C696D6974005700002054
:105440006C65645F6C696D69740000005800002031
:1054500070B504460E460025206898B901202073D7
:10546000304603F0CFFC20602068E0B1002060608F
:10547000A66003E00020216848556D1CA068A84282
:10548000F8D810E00220207303E00020216848557E
:105490006D1CA068A842F8D800206060A068B042E7
:1054A00001D20020206070BD10B50446207B012889
:1054B00002D1206803F0D5FC002020606060A0606D
:1054C000207310BD0246002301230DE002F07F008F
:1054D0000870D2092AB1087840F080000870491C91
:1054E00001E0184670475B1C042BEFDD4FF0FF30E6
:1054F000F8E7F0B504460D4626460123002010606B
:10550000002114E0775C07F07F07106807FB0300B9
:105510001060705C00F0800008B9481CF0BDDB0131
:10552000B3F5001F02D36FF00100F7E7491CA94251
:10553000E8DB4FF0FF30F1E7F8B50446FF272078AD
:105540000511012D01DB0E2D01DD3846F8BD032DBF
:1055500024D1002000906A460421601CFFF7C9FF97
:105560002044461C0098022803D3207800F0010054
:1055700008B1FF20EAE77078317840EA0120801C0A
:105580000099884201D9FF20E0E7F8A1B01C03F0A0
:105590002EFE08B10F2700E0032700E02F46384613
:1055A000D4E72DE9FF4F83B082468B469146159C88
:1055B0000025002002900F270190484603F04DFE81
:1055C0000FFA80F8B9F1000F03D1012007B0BDE850
:1055D000F08F08F10200384487B2109808B145F006
:1055E0000205129878B145F00405129803F035FED3
:1055F000C0B20290139803F030FE01460298001DDD
:105600000844384487B2119820B1012804D00228F8
:1056100008D104E000BF07E045F00C0504E045F0C8
:10562000140501E00220D1E700BF149808B145F04D
:105630002405BAF1000F02D0BBF1000F01D1032005
:10564000C4E745F0C005504603F007FE064658463D
:1056500003F003FE3044001D384487B2394620462B
:10566000FFF7F6FE206808B90420AFE73946206846
:1056700003F09DFE10216268501C60602068815418
:10568000D4E90023D118781FFFF71CFF00B2019066
:105690000198002804DA2046FFF706FF052095E769
:1056A000616801980844606000216268501C606075
:1056B0002068815404216268501C60602068815415
:1056C0004D216268501C60602068815451216268DD
:1056D000501C60602068815454216268501C6060D6
:1056E000206881546268501C6060206881540421E5
:1056F0006268501C6060206881546168481C60606A
:10570000206845540698010A6268501C6060206851
:1057100081540698C1B26268501C60602068815450
:10572000C8F307216268501C606020688154626879
:10573000501C6060206800F80280D4E900128818CC
:105740004246494603F041FD60684044606005F010
:105750000400B8B30026139808B986A013901298D5
:1057600003F07BFD86B2310A6268501C60602068DD
:1057700081546268501C606020688654D4E900122D
:1057800088183246129903F020FD6068304460604A
:10579000139803F062FD86B2310A6268501C6060A3
:1057A000206881546268501C606020688654D4E987
:1057B000001288183246139903F007FD60683044E0
:1057C000606000BF05F08000C8B1504603F045FDA1
:1057D00086B2310A6268501C606020688154626839
:1057E000501C606020688654D4E900128818324644
:1057F000514603F0EAFC60683044606000BF05F089
:105800004000C8B1584603F028FD86B2310A6268EC
:10581000501C6060206881546268501C6060206881
:105820008654D4E9001288183246594603F0CDFC5C
:1058300060683044606000BF0020C7E610B50446D1
:1058400002212046FFF704FE206808B9012010BDA0
:10585000E0216268501C6060206881540021626809
:10586000501C6060206881540020F0E701464878B1
:10587000022801D001207047887810B1887801286B
:1058800001D1C878F7E7FF20F5E72DE9FF4F83B096
:10589000834617469946139C002500260020029057
:1058A00001908046BBF1000F03D1012007B0BDE895
:1058B000F08F00260AE00498805D232803D0049826
:1058C000805D2B2801D10220F0E7761C0498805DD2
:1058D0000028F0D148F03008119808B148F00108CC
:1058E00006EB0900851C109820B1012804D002287D
:1058F0000AD105E000BF09E048F00208AD1C05E050
:1059000048F00408AD1C01E00320CFE700BF67B3F7
:105910003878022821D14FF0000A00BF50460AF122
:10592000010A385C7D28F9D1AAF1030A0AF10700BF
:1059300002900298A9EB000AE81CA0EB0A0120469D
:10594000FFF786FD206808B90420AFE7EA1CA2EB48
:105950000A01206803F02BFD1FE0691D2046FFF7B8
:1059600077FD206840B90420A0E70AE0246372654F
:105970007100000000000000691D206803F017FDA1
:105980000BE0691D2046FFF763FD206808B904207D
:105990008CE7691D206803F00AFD6168481C60609F
:1059A000206800F80180D4E9000281182846FFF73A
:1059B00089FD01900198002804DA2046FFF774FD64
:1059C000052073E76168019808446060C6F3072109
:1059D0006268501C6060206881546268501C60607E
:1059E00020688654D4E9001288183246049903F0DE
:1059F000ECFB606830446060109860B14FEA1B2196
:105A00006268501C6060206881546268501C60604D
:105A1000206800F802B0C7B1387802280BD1D4E969
:105A2000001288183946029A03F042FC6168029815
:105A30000844606009E0D4E9001288184A463946F3
:105A400003F036FC60684844606000202EE72DE9D2
:105A5000F04190B006460F4614469846169DF7A2B0
:105A6000302104A803F054FA01200021CDE90001FF
:105A700023460A4604A9CDE902050A20FFF705FFDF
:105A800018B1012010B0BDE8F0810020FAE72DE93F
:105A9000F04F85B080460D469146012004900027C6
:105AA000002600244FF0000A404603F0D6FB00F128
:105AB0000D0B584603F0A6F907461FB9049805B028
:105AC000BDE8F08F4246E6A1384603F00BFA3846AF
:105AD00003F0C3FBC6B2F01D00EB050AAAEB0500FC
